OKC Rentables
Accord/OKC Members, LLC
6303 NW 63rd Street
Oklahoma City, OK 73132 USA

RID        Name          Assignment Time
---------  ------------  ---------------
R00000001  6301-001      pre-assign     
R00000002  6301-002      pre-assign     
R00000003  6301-003      pre-assign     
R00000004  6301-004      pre-assign     
R00000005  6301-005      pre-assign     
R00000006  6301-006      pre-assign     
R00000007  6301-007      pre-assign     
R00000008  6301-008      pre-assign     
R00000009  6303-009      pre-assign     
R00000010  6303-010      pre-assign     
R00000011  6303-011      pre-assign     
R00000012  6303-012      pre-assign     
R00000013  6303-013      pre-assign     
R00000014  6303-014      pre-assign     
R00000015  6303-015      pre-assign     
R00000016  6303-016      pre-assign     
R00000017  6305-015      pre-assign     
R00000018  6305-017      pre-assign     
R00000019  6305-018      pre-assign     
R00000020  6305-019      pre-assign     
R00000021  6305-020      pre-assign     
R00000022  6305-021      pre-assign     
R00000023  6305-022      pre-assign     
R00000024  6305-024      pre-assign     
R00000025  6307-023      pre-assign     
R00000026  6307-025      pre-assign     
R00000027  6307-026      pre-assign     
R00000028  6307-027      pre-assign     
R00000029  6307-028      pre-assign     
R00000030  6307-029      pre-assign     
R00000031  6307-030      pre-assign     
R00000032  6307-032      pre-assign     
R00000033  6309-031      pre-assign     
R00000034  6309-033      pre-assign     
R00000035  6309-034      pre-assign     
R00000036  6309-035      pre-assign     
R00000037  6309-036      pre-assign     
R00000038  6309-037      pre-assign     
R00000039  6309-038      pre-assign     
R00000040  6309-040      pre-assign     
R00000041  6311-039      pre-assign     
R00000042  6311-041      pre-assign     
R00000043  6311-042      pre-assign     
R00000044  6311-043      pre-assign     
R00000045  6311-044      pre-assign     
R00000046  6311-045      pre-assign     
R00000047  6311-046      pre-assign     
R00000048  6311-048      pre-assign     
R00000049  6313-047      pre-assign     
R00000050  6313-049      pre-assign     
R00000051  6313-050      pre-assign     
R00000052  6313-051      pre-assign     
R00000053  6313-052      pre-assign     
R00000054  6313-053      pre-assign     
R00000055  6313-054      pre-assign     
R00000056  6313-056      pre-assign     
R00000057  6315-055      pre-assign     
R00000058  6315-057      pre-assign     
R00000059  6315-058      pre-assign     
R00000060  6315-059      pre-assign     
R00000061  6315-060      pre-assign     
R00000062  6315-061      pre-assign     
R00000063  6315-062      pre-assign     
R00000064  6315-064      pre-assign     
R00000065  6317-063      pre-assign     
R00000066  6317-065      pre-assign     
R00000067  6317-066      pre-assign     
R00000068  6317-067      pre-assign     
R00000069  6317-068      pre-assign     
R00000070  6317-069      pre-assign     
R00000071  6317-070      pre-assign     
R00000072  6317-072      pre-assign     
R00000073  6319-071      pre-assign     
R00000074  6319-073      pre-assign     
R00000075  6319-074      pre-assign     
R00000076  6319-075      pre-assign     
R00000077  6319-076      pre-assign     
R00000078  6319-078      pre-assign     
R00000079  6319-080      pre-assign     
R00000080  6321-077      pre-assign     
R00000081  6321-079      pre-assign     
R00000082  6321-081      pre-assign     
R00000083  6321-082      pre-assign     
R00000084  6321-083      pre-assign     
R00000085  6321-084      pre-assign     
R00000086  6321-086      pre-assign     
R00000087  6321-088      pre-assign     
R00000088  6323-085      pre-assign     
R00000089  6323-087      pre-assign     
R00000090  6323-089      pre-assign     
R00000091  6323-090      pre-assign     
R00000092  6323-091      pre-assign     
R00000093  6323-092      pre-assign     
R00000094  6323-094      pre-assign     
R00000095  6323-096      pre-assign     
R00000096  6325-093      pre-assign     
R00000097  6325-095      pre-assign     
R00000098  6325-097      pre-assign     
R00000099  6325-098      pre-assign     
R00000100  6325-099      pre-assign     
R00000101  6325-100      pre-assign     
R00000102  6325-102      pre-assign     
R00000103  6325-104      pre-assign     
R00000104  6327-101      pre-assign     
R00000105  6327-103      pre-assign     
R00000106  6327-105      pre-assign     
R00000107  6327-106      pre-assign     
R00000108  6327-107      pre-assign     
R00000109  6327-108      pre-assign     
R00000110  6327-110      pre-assign     
R00000111  6327-112      pre-assign     
R00000112  6329-109      pre-assign     
R00000113  6329-111      pre-assign     
R00000114  6329-113      pre-assign     
R00000115  6329-114      pre-assign     
R00000116  6329-115      pre-assign     
R00000117  6329-116      pre-assign     
R00000118  6329-118      pre-assign     
R00000119  6329-120      pre-assign     
R00000120  6331-117      pre-assign     
R00000121  6331-119      pre-assign     
R00000122  6331-121      pre-assign     
R00000123  6331-122      pre-assign     
R00000124  6331-124      pre-assign     
R00000125  6331-126      pre-assign     
R00000126  6331-128      pre-assign     
R00000127  6333-123      pre-assign     
R00000128  6333-125      pre-assign     
R00000129  6333-127      pre-assign     
R00000130  6333-129      pre-assign     
R00000131  6333-130      pre-assign     
R00000132  6333-132      pre-assign     
R00000133  6333-134      pre-assign     
R00000134  6333-136      pre-assign     
R00000135  6335-131      pre-assign     
R00000136  6335-133      pre-assign     
R00000137  6335-135      pre-assign     
R00000138  6335-137      pre-assign     
R00000139  6335-138      pre-assign     
R00000140  6335-140      pre-assign     
R00000141  6335-142      pre-assign     
R00000142  6335-144      pre-assign     
R00000143  6337-139      pre-assign     
R00000144  6337-141      pre-assign     
R00000145  6337-143      pre-assign     
R00000146  6337-145      pre-assign     
R00000147  6337-146      pre-assign     
R00000148  6337-148      pre-assign     
R00000149  6337-150      pre-assign     
R00000150  6337-152      pre-assign     
R00000151  6339-147      pre-assign     
R00000152  6339-149      pre-assign     
R00000153  6339-151      pre-assign     
R00000154  6339-153      pre-assign     
R00000155  6339-154      pre-assign     
R00000156  6339-156      pre-assign     
R00000157  6339-158      pre-assign     
R00000158  6339-160      pre-assign     
R00000159  6341-155      pre-assign     
R00000160  6341-157      pre-assign     
R00000161  6341-159      pre-assign     
R00000162  6341-161      pre-assign     
R00000163  6341-162      pre-assign     
R00000164  6341-164      pre-assign     
R00000165  6341-166      pre-assign     
R00000166  6341-168      pre-assign     
R00000167  6343-163      pre-assign     
R00000168  6343-165      pre-assign     
R00000169  6343-167      pre-assign     
R00000170  6343-169      pre-assign     
R00000171  6343-170      pre-assign     
R00000172  6343-172      pre-assign     
R00000173  6343-174      pre-assign     
R00000174  6343-176      pre-assign     
R00000175  6345-171      pre-assign     
R00000176  6345-173      pre-assign     
R00000177  6345-175      pre-assign     
R00000178  6345-177      pre-assign     
R00000179  6345-178      pre-assign     
R00000180  6345-180      pre-assign     
R00000181  6345-182      pre-assign     
R00000182  6345-184      pre-assign     
R00000183  6347-179      pre-assign     
R00000184  6347-181      pre-assign     
R00000185  6347-183      pre-assign     
R00000186  6347-185      pre-assign     
R00000187  6347-186      pre-assign     
R00000188  6347-188      pre-assign     
R00000189  6347-190      pre-assign     
R00000190  6347-192      pre-assign     
R00000191  6349-187      pre-assign     
R00000192  6349-189      pre-assign     
R00000193  6349-191      pre-assign     
R00000194  6349-193      pre-assign     
R00000195  6349-194      pre-assign     
R00000196  6349-196      pre-assign     
R00000197  6349-198      pre-assign     
R00000198  6349-200      pre-assign     
R00000199  6351-195      pre-assign     
R00000200  6351-197      pre-assign     
R00000201  6351-199      pre-assign     
R00000202  6351-201      pre-assign     
R00000203  6351-202      pre-assign     
R00000204  6351-204      pre-assign     
R00000205  6351-206      pre-assign     
R00000206  6351-208      pre-assign     
R00000207  6353-203      pre-assign     
R00000208  6353-205      pre-assign     
R00000209  6353-207      pre-assign     
R00000210  6353-209      pre-assign     
R00000211  6353-210      pre-assign     
R00000212  6353-212      pre-assign     
R00000213  6353-214      pre-assign     
R00000214  6353-216      pre-assign     
R00000215  6355-211      pre-assign     
R00000216  6355-213      pre-assign     
R00000217  6355-215      pre-assign     
R00000218  6355-217      pre-assign     
R00000219  6355-218      pre-assign     
R00000220  6355-220      pre-assign     
R00000221  6355-222      pre-assign     
R00000222  6355-224      pre-assign     
R00000223  6357-219      pre-assign     
R00000224  6357-221      pre-assign     
R00000225  6357-223      pre-assign     
R00000226  6357-225      pre-assign     
R00000227  6357-226      pre-assign     
R00000228  6357-228      pre-assign     
R00000229  6357-230      pre-assign     
R00000230  6357-232      pre-assign     
R00000231  6359-227      pre-assign     
R00000232  6359-229      pre-assign     
R00000233  6359-231      pre-assign     
R00000234  6359-234      pre-assign     
R00000235  6359-236      pre-assign     
R00000236  6359-238      pre-assign     
R00000237  6359-240      pre-assign     
R00000238  6361-233      pre-assign     
R00000239  6361-235      pre-assign     
R00000240  6361-237      pre-assign     
R00000241  6361-239      pre-assign     
R00000242  6361-242      pre-assign     
R00000243  6361-244      pre-assign     
R00000244  6361-246      pre-assign     
R00000245  6361-248      pre-assign     
R00000246  6363-241      pre-assign     
R00000247  6363-243      pre-assign     
R00000248  6363-245      pre-assign     
R00000249  6363-247      pre-assign     
R00000250  6363-250      pre-assign     
R00000251  6363-252      pre-assign     
R00000252  6363-254      pre-assign     
R00000253  6363-256      pre-assign     
R00000254  6365-249      pre-assign     
R00000255  6365-251      pre-assign     
R00000256  6365-253      pre-assign     
R00000257  6365-255      pre-assign     
R00000258  6365-258      pre-assign     
R00000259  6365-260      pre-assign     
R00000260  6365-262      pre-assign     
R00000261  6365-264      pre-assign     
R00000262  6367-257      pre-assign     
R00000263  6367-259      pre-assign     
R00000264  6367-261      pre-assign     
R00000265  6367-263      pre-assign     
R00000266  6367-266      pre-assign     
R00000267  6367-268      pre-assign     
R00000268  6367-270      pre-assign     
R00000269  6367-272      pre-assign     
R00000270  6369-265      pre-assign     
R00000271  6369-267      pre-assign     
R00000272  6369-269      pre-assign     
R00000273  6369-271      pre-assign     
R00000274  6369-274      pre-assign     
R00000275  6369-276      pre-assign     
R00000276  6369-278      pre-assign     
R00000277  6369-280      pre-assign     
R00000278  6371-273      pre-assign     
R00000279  6371-275      pre-assign     
R00000280  6371-277      pre-assign     
R00000281  6371-279      pre-assign     
R00000282  6371-282      pre-assign     
R00000283  6371-284      pre-assign     
R00000284  6371-286      pre-assign     
R00000285  6371-288      pre-assign     
R00000286  6373-281      pre-assign     
R00000287  6373-283      pre-assign     
R00000288  6373-285      pre-assign     
R00000289  6373-287      pre-assign     
R00000290  6373-290      pre-assign     
R00000291  6373-292      pre-assign     
R00000292  6373-294      pre-assign     
R00000293  6373-296      pre-assign     
R00000294  6375-289      pre-assign     
R00000295  6375-291      pre-assign     
R00000296  6375-293      pre-assign     
R00000297  6375-295      pre-assign     
R00000298  6375-298      pre-assign     
R00000299  6375-300      pre-assign     
R00000300  6375-302      pre-assign     
R00000301  6375-304      pre-assign     
R00000302  6377-297      pre-assign     
R00000303  6377-299      pre-assign     
R00000304  6377-301      pre-assign     
R00000305  6377-303      pre-assign     
R00000306  6377-306      pre-assign     
R00000307  6377-308      pre-assign     
R00000308  6377-310      pre-assign     
R00000309  6377-312      pre-assign     
R00000310  6379-305      pre-assign     
R00000311  6379-307      pre-assign     
R00000312  6379-309      pre-assign     
R00000313  6379-311      pre-assign     
R00000314  6379-314      pre-assign     
R00000315  6379-316      pre-assign     
R00000316  6379-318      pre-assign     
R00000317  6379-320      pre-assign     
R00000318  6381-313      pre-assign     
R00000319  6381-315      pre-assign     
R00000320  6381-317      pre-assign     
R00000321  6381-319      pre-assign     
R00000322  6381-322      pre-assign     
R00000323  6381-324      pre-assign     
R00000324  6381-326      pre-assign     
R00000325  6381-328      pre-assign     
R00000326  6383-321      pre-assign     
R00000327  6383-323      pre-assign     
R00000328  6383-325      pre-assign     
R00000329  6383-327      pre-assign     
R00000330  6383-330      pre-assign     
R00000331  6383-332      pre-assign     
R00000332  6383-334      pre-assign     
R00000333  6383-336      pre-assign     
R00000334  6385-329      pre-assign     
R00000335  6385-331      pre-assign     
R00000336  6385-333      pre-assign     
R00000337  6385-335      pre-assign     
R00000338  6385-338      pre-assign     
R00000339  6385-340      pre-assign     
R00000340  6385-342      pre-assign     
R00000341  6385-344      pre-assign     
R00000342  6387-337      pre-assign     
R00000343  6387-339      pre-assign     
R00000344  6387-341      pre-assign     
R00000345  6387-343      pre-assign     
R00000346  6387-346      pre-assign     
R00000347  6387-348      pre-assign     
R00000348  6387-350      pre-assign     
R00000349  6387-352      pre-assign     
R00000350  6389-345      pre-assign     
R00000351  6389-347      pre-assign     
R00000352  6389-349      pre-assign     
R00000353  6389-351      pre-assign     
R00000354  6389-354      pre-assign     
R00000355  6389-356      pre-assign     
R00000356  6389-358      pre-assign     
R00000357  6389-360      pre-assign     
R00000358  6391-353      pre-assign     
R00000359  6391-355      pre-assign     
R00000360  6391-357      pre-assign     
R00000361  6391-359      pre-assign     
R00000362  6391-362      pre-assign     
R00000363  6391-364      pre-assign     
R00000364  6391-366      pre-assign     
R00000365  6391-368      pre-assign     
R00000366  6393-361      pre-assign     
R00000367  6393-363      pre-assign     
R00000368  6393-365      pre-assign     
R00000369  6393-367      pre-assign     
R00000370  6393-370      pre-assign     
R00000371  6393-372      pre-assign     
R00000372  6393-374      pre-assign     
R00000373  6393-376      pre-assign     
R00000374  6395-369      pre-assign     
R00000375  6395-371      pre-assign     
R00000376  6395-373      pre-assign     
R00000377  6395-375      pre-assign     
R00000378  6395-378      pre-assign     
R00000379  6395-380      pre-assign     
R00000380  6395-382      pre-assign     
R00000381  6395-384      pre-assign     
R00000382  6401-6401     pre-assign     
R00000383  6403-6403     pre-assign     
R00000384  6404-001      pre-assign     
R00000385  6404-002      pre-assign     
R00000386  6404-003      pre-assign     
R00000387  6404-004      pre-assign     
R00000388  6404-005      pre-assign     
R00000389  6404-006      pre-assign     
R00000390  6404-007      pre-assign     
R00000391  6404-008      pre-assign     
R00000392  6408-009      pre-assign     
R00000393  6408-010      pre-assign     
R00000394  6408-011      pre-assign     
R00000395  6408-012      pre-assign     
R00000396  6408-013      pre-assign     
R00000397  6408-014      pre-assign     
R00000398  6408-015      pre-assign     
R00000399  6408-016      pre-assign     
R00000400  6412-017      pre-assign     
R00000401  6412-018      pre-assign     
R00000402  6412-019      pre-assign     
R00000403  6412-020      pre-assign     
R00000404  6412-021      pre-assign     
R00000405  6412-022      pre-assign     
R00000406  6412-023      pre-assign     
R00000407  6412-024      pre-assign     
R00000408  6416-025      pre-assign     
R00000409  6416-026      pre-assign     
R00000410  6416-027      pre-assign     
R00000411  6416-028      pre-assign     
R00000412  6416-029      pre-assign     
R00000413  6416-030      pre-assign     
R00000414  6416-031      pre-assign     
R00000415  6416-032      pre-assign     
R00000416  6417-6417     pre-assign     
R00000417  6419-6419     pre-assign     
R00000418  6420-033      pre-assign     
R00000419  6420-034      pre-assign     
R00000420  6420-035      pre-assign     
R00000421  6420-036      pre-assign     
R00000422  6420-037      pre-assign     
R00000423  6420-038      pre-assign     
R00000424  6420-040      pre-assign     
R00000425  6424-041      pre-assign     
R00000426  6424-042      pre-assign     
R00000427  6424-043      pre-assign     
R00000428  6424-044      pre-assign     
R00000429  6424-045      pre-assign     
R00000430  6424-046      pre-assign     
R00000431  6424-047      pre-assign     
R00000432  6424-048      pre-assign     
R00000433  6428-049      pre-assign     
R00000434  6428-050      pre-assign     
R00000435  6428-051      pre-assign     
R00000436  6428-052      pre-assign     
R00000437  6428-053      pre-assign     
R00000438  6428-054      pre-assign     
R00000439  6428-055      pre-assign     
R00000440  6428-056      pre-assign     
R00000441  6432-057      pre-assign     
R00000442  6432-058      pre-assign     
R00000443  6432-059      pre-assign     
R00000444  6432-060      pre-assign     
R00000445  6432-061      pre-assign     
R00000446  6432-062      pre-assign     
R00000447  6432-063      pre-assign     
R00000448  6432-064      pre-assign     
R00000449  6436-065      pre-assign     
R00000450  6436-066      pre-assign     
R00000451  6436-067      pre-assign     
R00000452  6436-068      pre-assign     
R00000453  6436-069      pre-assign     
R00000454  6436-070      pre-assign     
R00000455  6436-071      pre-assign     
R00000456  6436-072      pre-assign     
R00000457  6440-073      pre-assign     
R00000458  6440-074      pre-assign     
R00000459  6440-075      pre-assign     
R00000460  6440-076      pre-assign     
R00000461  6440-077      pre-assign     
R00000462  6440-078      pre-assign     
R00000463  6440-079      pre-assign     
R00000464  6440-080      pre-assign     
R00000465  6444-081      pre-assign     
R00000466  6444-082      pre-assign     
R00000467  6444-083      pre-assign     
R00000468  6444-084      pre-assign     
R00000469  6444-085      pre-assign     
R00000470  6444-086      pre-assign     
R00000471  6444-087      pre-assign     
R00000472  6444-088      pre-assign     
R00000473  6600-001      pre-assign     
R00000474  6600-002      pre-assign     
R00000475  6600-003      pre-assign     
R00000476  6600-004      pre-assign     
R00000477  6600-005      pre-assign     
R00000478  6600-006      pre-assign     
R00000479  6600-007      pre-assign     
R00000480  6600-008      pre-assign     
R00000481  6600VIL-101   pre-assign     
R00000482  6600VIL-102   pre-assign     
R00000483  6600VIL-103   pre-assign     
R00000484  6600VIL-104   pre-assign     
R00000485  6600VIL-201   pre-assign     
R00000486  6600VIL-202   pre-assign     
R00000487  6600VIL-203   pre-assign     
R00000488  6600VIL-204   pre-assign     
R00000489  6602VIL-105   pre-assign     
R00000490  6602VIL-106   pre-assign     
R00000491  6602VIL-107   pre-assign     
R00000492  6602VIL-108   pre-assign     
R00000493  6602VIL-205   pre-assign     
R00000494  6602VIL-206   pre-assign     
R00000495  6602VIL-207   pre-assign     
R00000496  6602VIL-208   pre-assign     
R00000497  6604-009      pre-assign     
R00000498  6604-010      pre-assign     
R00000499  6604-011      pre-assign     
R00000500  6604-012      pre-assign     
R00000501  6604-013      pre-assign     
R00000502  6604-014      pre-assign     
R00000503  6604-015      pre-assign     
R00000504  6604-016      pre-assign     
R00000505  6604VIL-109   pre-assign     
R00000506  6604VIL-110   pre-assign     
R00000507  6604VIL-111   pre-assign     
R00000508  6604VIL-112   pre-assign     
R00000509  6604VIL-209   pre-assign     
R00000510  6604VIL-210   pre-assign     
R00000511  6604VIL-211   pre-assign     
R00000512  6604VIL-212   pre-assign     
R00000513  6606VIL-113   pre-assign     
R00000514  6606VIL-114   pre-assign     
R00000515  6606VIL-115   pre-assign     
R00000516  6606VIL-116   pre-assign     
R00000517  6606VIL-213   pre-assign     
R00000518  6606VIL-214   pre-assign     
R00000519  6606VIL-215   pre-assign     
R00000520  6606VIL-216   pre-assign     
R00000521  6608-017      pre-assign     
R00000522  6608-018      pre-assign     
R00000523  6608-019      pre-assign     
R00000524  6608-020      pre-assign     
R00000525  6608-021      pre-assign     
R00000526  6608-022      pre-assign     
R00000527  6608-023      pre-assign     
R00000528  6608-024      pre-assign     
R00000529  6608VIL-117   pre-assign     
R00000530  6608VIL-118   pre-assign     
R00000531  6608VIL-119   pre-assign     
R00000532  6608VIL-120   pre-assign     
R00000533  6608VIL-120A  pre-assign     
R00000534  6608VIL-120B  pre-assign     
R00000535  6608VIL-220   pre-assign     
R00000536  6610VIL-121   pre-assign     
R00000537  6610VIL-122   pre-assign     
R00000538  6610VIL-123   pre-assign     
R00000539  6610VIL-221   pre-assign     
R00000540  6610VIL-222   pre-assign     
R00000541  6610VIL-223   pre-assign     
R00000542  6612-025      pre-assign     
R00000543  6612-026      pre-assign     
R00000544  6612-027      pre-assign     
R00000545  6612-028      pre-assign     
R00000546  6612-029      pre-assign     
R00000547  6612-030      pre-assign     
R00000548  6612-031      pre-assign     
R00000549  6612-032      pre-assign     
R00000550  6612VIL-124   pre-assign     
R00000551  6612VIL-125   pre-assign     
R00000552  6612VIL-126   pre-assign     
R00000553  6612VIL-224   pre-assign     
R00000554  6612VIL-225   pre-assign     
R00000555  6612VIL-226   pre-assign     
R00000556  6616-033      pre-assign     
R00000557  6616-034      pre-assign     
R00000558  6616-035      pre-assign     
R00000559  6616-036      pre-assign     
R00000560  6616-037      pre-assign     
R00000561  6616-038      pre-assign     
R00000562  6616-039      pre-assign     
R00000563  6616-040      pre-assign     
R00000564  6700-041      pre-assign     
R00000565  6700-042      pre-assign     
R00000566  6700-043      pre-assign     
R00000567  6700-044      pre-assign     
R00000568  6700-045      pre-assign     
R00000569  6700-046      pre-assign     
R00000570  6700-047      pre-assign     
R00000571  6700-048      pre-assign     
R00000572  6704-049      pre-assign     
R00000573  6704-050      pre-assign     
R00000574  6704-051      pre-assign     
R00000575  6704-052      pre-assign     
R00000576  6704-053      pre-assign     
R00000577  6704-054      pre-assign     
R00000578  6704-055      pre-assign     
R00000579  6704-056      pre-assign     
R00000580  6708-057      pre-assign     
R00000581  6708-058      pre-assign     
R00000582  6708-059      pre-assign     
R00000583  6708-060      pre-assign     
R00000584  6708-061      pre-assign     
R00000585  6708-062      pre-assign     
R00000586  6708-063      pre-assign     
R00000587  6708-064      pre-assign     
R00000588  6712-065      pre-assign     
R00000589  6712-066      pre-assign     
R00000590  6712-067      pre-assign     
R00000591  6712-068      pre-assign     
R00000592  6712-069      pre-assign     
R00000593  6712-070      pre-assign     
R00000594  6712-071      pre-assign     
R00000595  6712-072      pre-assign     
R00000596  6716-073      pre-assign     
R00000597  6716-074      pre-assign     
R00000598  6716-075      pre-assign     
R00000599  6716-076      pre-assign     
R00000600  6716-077      pre-assign     
R00000601  6716-078      pre-assign     
R00000602  6716-079      pre-assign     
R00000603  6716-080      pre-assign     
R00000604  6800-081      pre-assign     
R00000605  6800-082      pre-assign     
R00000606  6800-083      pre-assign     
R00000607  6800-084      pre-assign     
R00000608  6800-085      pre-assign     
R00000609  6800-086      pre-assign     
R00000610  6800-087      pre-assign     
R00000611  6800-088      pre-assign     
R00000612  6804-089      pre-assign     
R00000613  6804-090      pre-assign     
R00000614  6804-091      pre-assign     
R00000615  6804-092      pre-assign     
R00000616  6804-093      pre-assign     
R00000617  6804-094      pre-assign     
R00000618  6804-095      pre-assign     
R00000619  6804-096      pre-assign     
R00000620  6808-097      pre-assign     
R00000621  6808-098      pre-assign     
R00000622  6808-099      pre-assign     
R00000623  6808-100      pre-assign     
R00000624  6808-101      pre-assign     
R00000625  6808-102      pre-assign     
R00000626  6808-103      pre-assign     
R00000627  6808-104      pre-assign     
R00000628  6812-105      pre-assign     
R00000629  6812-106      pre-assign     
R00000630  6812-107      pre-assign     
R00000631  6812-108      pre-assign     
R00000632  6812-109      pre-assign     
R00000633  6812-110      pre-assign     
R00000634  6812-111      pre-assign     
R00000635  6812-112      pre-assign     
R00000636  6816-113      pre-assign     
R00000637  6816-114      pre-assign     
R00000638  6816-115      pre-assign     
R00000639  6816-116      pre-assign     
R00000640  6816-117      pre-assign     
R00000641  6816-118      pre-assign     
R00000642  6816-119      pre-assign     
R00000643  6816-120      pre-assign     
R00000644  6820-121      pre-assign     
R00000645  6820-122      pre-assign     
R00000646  6820-123      pre-assign     
R00000647  6820-124      pre-assign     
R00000648  6820-125      pre-assign     
R00000649  6820-126      pre-assign     
R00000650  6820-127      pre-assign     
R00000651  6820-128      pre-assign     
R00000652  6824-129      pre-assign     
R00000653  6824-130      pre-assign     
R00000654  6824-131      pre-assign     
R00000655  6824-132      pre-assign     
R00000656  6824-133      pre-assign     
R00000657  6824-134      pre-assign     
R00000658  6824-135      pre-assign     
R00000659  6824-136      pre-assign     
R00000660  6828-137      pre-assign     
R00000661  6828-138      pre-assign     
R00000662  6828-139      pre-assign     
R00000663  6828-140      pre-assign     
R00000664  6828-141      pre-assign     
R00000665  6828-142      pre-assign     
R00000666  6828-143      pre-assign     
R00000667  6828-144      pre-assign     
R00000668  6900-145      pre-assign     
R00000669  6900-146      pre-assign     
R00000670  6900-147      pre-assign     
R00000671  6900-148      pre-assign     
R00000672  6900-149      pre-assign     
R00000673  6900-150      pre-assign     
R00000674  6900-151      pre-assign     
R00000675  6900-152      pre-assign     
R00000676  6904-153      pre-assign     
R00000677  6904-154      pre-assign     
R00000678  6904-155      pre-assign     
R00000679  6904-156      pre-assign     
R00000680  6904-157      pre-assign     
R00000681  6904-158      pre-assign     
R00000682  6904-159      pre-assign     
R00000683  6904-160      pre-assign     
R00000684  6908-161      pre-assign     
R00000685  6908-162      pre-assign     
R00000686  6908-163      pre-assign     
R00000687  6908-164      pre-assign     
R00000688  6908-165      pre-assign     
R00000689  6908-166      pre-assign     
R00000690  6908-167      pre-assign     
R00000691  6908-168      pre-assign     
R00000692  6912-169      pre-assign     
R00000693  6912-170      pre-assign     
R00000694  6912-171      pre-assign     
R00000695  6912-172      pre-assign     
R00000696  6912-173      pre-assign     
R00000697  6912-174      pre-assign     
R00000698  6912-175      pre-assign     
R00000699  6912-176      pre-assign     
R00000700  6916-177      pre-assign     
R00000701  6916-178      pre-assign     
R00000702  6916-179      pre-assign     
R00000703  6916-180      pre-assign     
R00000704  6916-181      pre-assign     
R00000705  6916-182      pre-assign     
R00000706  6916-183      pre-assign     
R00000707  6916-184      pre-assign     
R00000708  7000-185      pre-assign     
R00000709  7000-186      pre-assign     
R00000710  7000-187      pre-assign     
R00000711  7000-188      pre-assign     
R00000712  7000-189      pre-assign     
R00000713  7000-190      pre-assign     
R00000714  7000-191      pre-assign     
R00000715  7000-192      pre-assign     
R00000716  7004-193      pre-assign     
R00000717  7004-194      pre-assign     
R00000718  7004-195      pre-assign     
R00000719  7004-196      pre-assign     
R00000720  7004-197      pre-assign     
R00000721  7004-198      pre-assign     
R00000722  7004-199      pre-assign     
R00000723  7004-200      pre-assign     
R00000724  7008-201      pre-assign     
R00000725  7008-202      pre-assign     
R00000726  7008-203      pre-assign     
R00000727  7008-204      pre-assign     
R00000728  7008-205      pre-assign     
R00000729  7008-206      pre-assign     
R00000730  7008-207      pre-assign     
R00000731  7008-208      pre-assign     
R00000732  7012-209      pre-assign     
R00000733  7012-210      pre-assign     
R00000734  7012-211      pre-assign     
R00000735  7012-212      pre-assign     
R00000736  7012-213      pre-assign     
R00000737  7012-214      pre-assign     
R00000738  7012-215      pre-assign     
R00000739  7012-216      pre-assign     
R00000740  7016-217      pre-assign     
R00000741  7016-218      pre-assign     
R00000742  7016-219      pre-assign     
R00000743  7016-220      pre-assign     
R00000744  7016-221      pre-assign     
R00000745  7016-222      pre-assign     
R00000746  7016-223      pre-assign     
R00000747  7016-224      pre-assign     
R00000748  7020-7020     pre-assign     
R00000749  7022-7022     pre-assign     
R00000750  7024-7024     pre-assign     
R00000751  7026-7026     pre-assign     
R00000752  7028-7028     pre-assign     
R00000753  7030-7030     pre-assign     
R00000754  7032-7032     pre-assign     
R00000755  7034-7034     pre-assign     
R00000756  7036-7036     pre-assign     
R00000757  7038-7038     pre-assign     
R00000758  7040-7040     pre-assign     
R00000759  7042-7042     pre-assign     
R00000760  7044-7044     pre-assign     
R00000761  7046-7046     pre-assign     
R00000762  7048-7048     pre-assign     
R00000763  7050-7050     pre-assign     
R00000764  7100-225      pre-assign     
R00000765  7100-226      pre-assign     
R00000766  7100-227      pre-assign     
R00000767  7100-228      pre-assign     
R00000768  7100-229      pre-assign     
R00000769  7100-230      pre-assign     
R00000770  7100-231      pre-assign     
R00000771  7100-232      pre-assign     
R00000772  7104-233      pre-assign     
R00000773  7104-234      pre-assign     
R00000774  7104-235      pre-assign     
R00000775  7104-236      pre-assign     
R00000776  7104-237      pre-assign     
R00000777  7104-238      pre-assign     
R00000778  7104-239      pre-assign     
R00000779  7104-240      pre-assign     
R00000780  7108-241      pre-assign     
R00000781  7108-242      pre-assign     
R00000782  7108-243      pre-assign     
R00000783  7108-244      pre-assign     
R00000784  7108-245      pre-assign     
R00000785  7108-246      pre-assign     
R00000786  7108-247      pre-assign     
R00000787  7108-248      pre-assign     
R00000788  7112-249      pre-assign     
R00000789  7112-250      pre-assign     
R00000790  7112-251      pre-assign     
R00000791  7112-252      pre-assign     
R00000792  7112-253      pre-assign     
R00000793  7112-254      pre-assign     
R00000794  7112-255      pre-assign     
R00000795  7112-256      pre-assign     
R00000796  7120-7120     pre-assign     
R00000797  7122-7122     pre-assign     
R00000798  7124-7124     pre-assign     
R00000799  7126-7126     pre-assign     
R00000800  7128-7128     pre-assign     
R00000801  7130-7130     pre-assign     
R00000802  7132-7132     pre-assign     
R00000803  7134-7134     pre-assign     
R00000804  7136-7136     pre-assign     
R00000805  7138-7138     pre-assign     
R00000806  7140-7140     pre-assign     
R00000807  7142-7142     pre-assign     
R00000808  7144-7144     pre-assign     
R00000809  7146-7146     pre-assign     
R00000810  7148-7148     pre-assign     
R00000811  7150-7150     pre-assign     
R00000812  7152-7152     pre-assign     
R00000813  7154-7154     pre-assign     
R00000814  7156-7156     pre-assign     
R00000815  7158-7158     pre-assign     
R00000816  7160-257      pre-assign     
R00000817  7160-258      pre-assign     
R00000818  7160-259      pre-assign     
R00000819  7160-260      pre-assign     
R00000820  7160-261      pre-assign     
R00000821  7160-262      pre-assign     
R00000822  7160-263      pre-assign     
R00000823  7160-264      pre-assign     
R00000824  7164-265      pre-assign     
R00000825  7164-266      pre-assign     
R00000826  7164-267      pre-assign     
R00000827  7164-268      pre-assign     
R00000828  7164-269      pre-assign     
R00000829  7164-270      pre-assign     
R00000830  7164-271      pre-assign     
R00000831  7164-272      pre-assign     
R00000832  7168-273      pre-assign     
R00000833  7168-274      pre-assign     
R00000834  7168-275      pre-assign     
R00000835  7168-276      pre-assign     
R00000836  7168-277      pre-assign     
R00000837  7168-278      pre-assign     
R00000838  7168-279      pre-assign     
R00000839  7168-280      pre-assign     
R00000840  7172-281      pre-assign     
R00000841  7172-282      pre-assign     
R00000842  7172-283      pre-assign     
R00000843  7172-284      pre-assign     
R00000844  7172-285      pre-assign     
R00000845  7172-286      pre-assign     
R00000846  7172-287      pre-assign     
R00000847  7172-288      pre-assign     
R00000848  7176-289      pre-assign     
R00000849  7176-290      pre-assign     
R00000850  7176-291      pre-assign     
R00000851  7176-292      pre-assign     
R00000852  7176-293      pre-assign     
R00000853  7176-294      pre-assign     
R00000854  7176-295      pre-assign     
R00000855  7176-296      pre-assign     

